:020000040800F2
:100000003806002001010008BF190008A1180008E7
:10001000BD1900087D010008011D00080000000056
:10002000000000000000000000000000FD190008B2
:100030008D01000800000000C1190008FF19000828
:100040001B0100081B0100081B0100081B01000820
:100050001B0100081B0100088F0100081B0100089C
:100060001B0100081B0100081B0100081B01000800
:100070001B0100081B0100081B0100081B010008F0
:100080001B0100081B0100081B010008E91C0008F7
:10009000F51C00081B010008810100081B01000875
:1000A0001B0100081B0100081B0100081B010008C0
:1000B0001B0100081B0100081B0100081B010008B0
:1000C0001B0100081B0100081B0100081B010008A0
:1000D0001B0100081B010008DD1C00081B010008B3
:1000E0001B0100081B0100081B010008DFF80CD0F1
:1000F00000F032F800480047751E0008380600205E
:100100000648804706480047FEE7FEE7FEE7FEE7B1
:10011000FEE7FEE7FEE7FEE7FEE7FEE7511A00080E
:10012000ED000008D2B201E000F8012B491EFBD21D
:1001300070470022F6E710B513460A4604461946F2
:10014000FFF7F0FF204610BD421C10F8011B0029EC
:10015000FBD1801A70470000064C074D06E0E068AE
:1001600040F0010394E8070098471034AC42F6D3FE
:10017000FFF7C0FFC0210008E0210008FEE70000F3
:10018000014800F097B900008C0000207047012062
:1001900000F044BD90F82020012A07D0022A05D0A3
:1001A000416A41F480214162012070470068426940
:1001B0000A43426100207047F0B590F8205004686F
:1001C000A468012D05D0022D03D0416A41F480219D
:1001D00053E014F0406F01D1E5004BD5C4F3016446
:1001E000022C03D9416A41F4000146E00125A540F3
:1001F0001D608D684FF4C0739DB1CE6835434E6865
:1002000045EAC605066803EB0417F5514FF4C275BD
:10021000076805EB04150E697E51097D012905D09B
:1002200009E00E88CD6845EA4655EBE701684E596E
:1002300046F480764E511179D2F805504FF4C676C7
:1002400041EA0525016806EB04168D511178D2F8B4
:1002500001204FF4C47541EA0221026805EB041540
:100260005151006803EB0411425842F00102425020
:100270000020F0BD416A41F4001141620120F0BD4F
:1002800010B590F820300268012B07D0022B05D062
:10029000416A41F480214162012010BDD2F8000280
:1002A00040F00100C2F80002087D00F01F030120A9
:1002B0009840D2F81C328343C2F81C32CB69B3B9E0
:1002C000D2F80C328343C2F80C328C894B6864F349
:1002D0001F434C6902EBC404C4F840320C890B681C
:1002E00064F31F434C6902EBC404C4F84432CB6985
:1002F000012B16D1D2F80C320343C2F80C320C8811
:100300004B6864F31F434C6902EBC404C4F84032E9
:100310000C89CB6864F31F434C6902EBC404C4F836
:1003200044328B69002BD2F804320FD053EA000319
:10033000C2F804320B69002BD2F8143208D0034300
:10034000C2F81432096A012904D008E08343EFE7B8
:100350008343F5E7D2F81C120143C2F81C12D2F80D
:10036000000220F00100C2F80002002010BD0000D1
:1003700010B504464FF40051064800F04BFD2046EE
:1003800000F00CF8204600F0F9FA0349C888401C38
:10039000C88010BD0010014034000020406A704742
:1003A00030B590F82040012C05D0022C03D0416AD2
:1003B00041F480215DE00468002955D02469A40738
:1003C00054D04FF4D874056804EB01142D5915F07E
:1003D0000405956005682D594ED0ED0855600568F7
:1003E0002C5904F00204D4604FF4DA74056804EB6D
:1003F00001142D5905F00F05156105682D59C5F338
:100400000725956105682C59240C54614FF4DC7262
:10041000046802EB0112A4581C700468A458240A52
:100420005C700468A458240C9C700468A258120ED6
:10043000DA704FF4DE72046802EB0112A4581C71EA
:100440000468A458240A5C710468A458240C9C71A4
:100450000468A258120EDA71006881B1016941F096
:1004600020010161002030BDE468A8E7416A41F441
:1004700000114162012030BD6D0D1560AFE7C1680C
:1004800041F02001C160EDE70246002092F8201003
:10049000012901D002290CD111688A68520100D5C6
:1004A00001208A68120100D5401C8968C90000D566
:1004B000401C70472DE9F05F05460068002446693E
:1004C000D0F804908768D0F80CA0D0F810B0D0F81D
:1004D0001880F10742D0F90712D001218160B807D6
:1004E00001D5A96A0AE0780702D54FF4006407E055
:1004F000380702D54FF4805402E0696B28468847DC
:10050000F80514D529684FF480708860B80501D5C6
:10051000E96A0AE0780502D544F4005407E038059A
:1005200002D544F4804402E0A96B28468847F803CA
:1005300014D529684FF480308860B80301D5296B41
:100540000AE0780302D544F4004407E0380302D5FA
:1005500044F4803402E0E96B2846884730074FF0C6
:10056000100706D55FEACA6003D5286844F4007412
:10057000C760700708D55FEA0A7005D529680820AA
:10058000C860696C28468847B00706D52868C068E7
:10059000800702D0296C28468847700606D55FEA96
:1005A000CB6003D5286844F480640761B00608D5A1
:1005B0005FEA0B7005D5296808200861E96C2846B8
:1005C0008847F00606D528680069800702D0A96C24
:1005D00028468847B00307D55FEAC96004D5286874
:1005E0004760296D28468847F00308D55FEA0970FF
:1005F00005D5296808204860696D28468847300479
:1006000046D55FEA497040D5F00504D55FEAC87069
:1006100001D044F00104B00504D55FEA887001D52B
:1006200044F00204700504D55FEA487001D544F037
:100630000404300529D518F0700F26D008F070009A
:10064000402815D006DC102809D020280AD03028F0
:1006500016D10AE050280ED0602811D10EE044F0E7
:1006600008040DE044F010040AE044F0200407E020
:1006700044F0400404E044F0800401E044F4807459
:100680002868816921F0700181612968042048602F
:10069000002C07D0686A204368622846A96DBDE82F
:1006A000F05F0847BDE8F09F70B5040003D094F8F0
:1006B000200010B122E0012070BD51482064514853
:1006C00060645148A0645148E0645148A0625148B8
:1006D000E06251482063514860635148A06351482B
:1006E000E06351482065514860655148A065E06D60
:1006F00008B95048E06501462046884720680168EF
:1007000021F00201016000F091FB0546052604E09E
:1007100000F08CFB401B0A2811D820684068800735
:10072000F6D42068016841F00101016000F07EFB11
:1007300005460BE000F07AFB401B0A2806D9606AE8
:1007400040F40030606284F82060B4E720684068BC
:10075000C007EFD0207E0128206801683DD021F03D
:1007600080010160607E01282068016838D021F096
:1007700040010160A07E01282068016833D021F08B
:1007800020010160E07E0128206801682ED041F040
:1007900010010160207F01282068016829D021F024
:1007A00008010160607F01282068016824D021F0E1
:1007B00004010160D4E902010843D4E904121143A1
:1007C00008436168491E08432168C86100206062CF
:1007D000012084F82000002070BD41F08001C0E7B6
:1007E00041F04001C5E741F02001CAE721F01001C6
:1007F000CFE741F00801D4E741F00401D9E7000058
:10080000430A0008410A0008470A0008450A000890
:10081000A70A0008AB0A0008AF0A0008A50A0008EA
:10082000A90A0008AD0A0008490A0008FD0A0008E4
:1008300071030008550800080146002091F82020A7
:10084000012A01D0022A04D109684968890700D524
:100850000120704710B586B00021009101910291EE
:10086000039100681F4988423AD11F48C16941F08D
:100870000071C161C16901F000710491816941F0A9
:10088000040181618069194C00F0040004904FF468
:10089000006000906946204600F0CCF9A01400905A
:1008A00002200190032003906946204600F0C2F91F
:1008B00000221146132000F035FB132000F025FB29
:1008C00000221146142000F02DFB142000F01DFB27
:1008D00000221146162000F025FB162000F015FB23
:1008E00006B010BD00640040001002400008014046
:1008F00010B500233AB190F82040012C09D090F8AF
:10090000204064B32FE0416A41F48001416201203C
:1009100010BD0F2927D2DFE801F0080A0C0E1012D3
:100920001416181A1C1E202D2F00826220E0C262AD
:100930001EE002631CE042631AE0826318E0C263B7
:1009400016E0026414E0426412E0826410E0C264C3
:100950000EE002650CE042650AE0826508E00D29C0
:1009600008D00E2908D0416A41F480014162012378
:10097000184610BDC265FBE70266F9E790F8202033
:100980000021012A08D0022A06D0416A41F48021C0
:10099000416201210846704700224262FAE70000E6
:1009A00010B5244B244A0021FFF7FAFC4FF4005104
:1009B000224800F02FFA20490020A1F1FC048A69A6
:1009C0001C4B04EBC202096903E01C5C1454401C7C
:1009D000C0B28142F9D8174908310888401C088004
:1009E0005A781978D007800F00EBD1131248B03035
:1009F0000370C2F340030372C2F380024272C1F378
:100A000080124270C1F340128270C1F30012C270B2
:100A1000C1F3C0020271C1F380024271C1F340020E
:100A2000827101F00101C17102490120263908706B
:100A300010BD00002C0000204801002000100140E3
:100A400070477047704770477047000070B50446A4
:100A500090F82000012804D0606A40F40020606211
:100A600018E0022084F820002068016821F00101CC
:100A7000016000F0DBF905460EE000BF00F0D6F99A
:100A8000401B0A2808D9606A40F4003060620520E3
:100A900084F82000012070BD20684068C007EDD1B7
:100AA000606270BD7047704770477047704770470D
:100AB00008B500210091104A90F82010012905D0B6
:100AC000022903D0416A41F480210CE001680B68DF
:100AD00023F002030B600099491C0091914205D953
:100AE000416A41F400314162012008BD0168496852
:100AF0008907F0D4002008BD40420F00074A10B516
:100B000011790446491C1171FFF7D2FF2046FFF707
:100B100093FE02493439086110BD00003400002002
:100B20000248416841F0010141607047002004E043
:100B300010B590F821100024022903D0042181630C
:100B400001243DE001680A6822F00E020A60016893
:100B50000A6822F001020A601A4A0168914201D132
:100B6000012121E0174A1432914201D110211BE0EA
:100B7000144A2832914201D1891515E0114A3C32BC
:100B8000914201D189140FE00E4A5032914202D1B4
:100B90004FF4803108E00B4A6432914202D14FF4A5
:100BA000801101E04FF08071064A083A516001213E
:100BB00080F82110002180F82010416B01B1884796
:100BC000204610BD0800024070B5044600F02EF922
:100BD0000546601C02D004480078044400F026F961
:100BE000401BA042FAD370BD3C000020012806D172
:100BF00009484178052903D24178491C4170704762
:100C000000214170817821B10229F8D10121817040
:100C100070470321FBE7000000000020044910B5E5
:100C20000A68024202D00860FFF7E0FF10BD000032
:100C3000140401402DE9F84FDFF8B891002409F1C0
:100C4000040A0AF1040B23460F270BF1040EC9E036
:100C50000125A5402A40AA427DD1674ED1F804C0A3
:100C6000ACEB0608B44532D014DCBCF1030F3AD02B
:100C700009DCBCF1000F2AD0BCF1010F1CD0BCF183
:100C8000020F31D11DE0BCF1110F17D0BCF1120FD2
:100C90002AD119E0B8F5881F19D006DCB8F5803FD5
:100CA00015D0B8F5801F1FD111E0B8F5001F0ED088
:100CB000B8F5041F18D10AE0CB6815E0CB681B1DFE
:100CC00012E0CB6808330FE0CB680C330CE08B6884
:100CD0002BB1012B4FF0080303D0456104E004233E
:100CE00002E0056100E00023FF2A01D8064601E08A
:100CF00000F104064FEA840501D9A5F12005D6F8D4
:100D0000008007FA05FC28EA0C0803FA05F548EA12
:100D10000508C6F800804D68ED0062D5374DAE6914
:100D200046F00106AE61AD6924F0030605F0010549
:100D30000095334D06EB050CDCF80850A607360F7E
:100D400007FA06F825EA0805DFF8B880404503D120
:100D50004FF0000817E044E0DFF8AC80404502D1D6
:100D60004FF001080FE0DFF8A480404502D14FF0BA
:100D7000020808E0DFF89880404502D14FF00308F0
:100D800001E04FF0040808FA06F848EA0508CCF834
:100D900008804D68D9F80060ED034D4601D5164333
:100DA00000E096432E604D68DAF80060AD035546CA
:100DB00001D5164300E096432E604D68DBF80060D5
:100DC000ED025D4601D5164300E096432E604D6866
:100DD000DEF80060AD02754601D5164300E096438B
:100DE0002E60641C0D682A46E5407FF431AFBDE8F3
:100DF000F88F0000000401400000111000100240B4
:100E00000000014000080140000C014000100140BA
:100E100000140140C2680A4201D04161704701617B
:100E200070470AB1016170470904FBE70148806817
:100E3000704700003C00002002488168027811449D
:100E4000816070473C000020074810B5016841F000
:100E500010010160032000F085F8002000F006F882
:100E600000F024F8002010BD0020024070B50D4DA8
:100E700004464FF47A712878B1FBF0F00A4909680A
:100E8000B1FBF0F000F061FB48B9102C07D2002252
:100E90002146501E00F046F800206C6070BD012015
:100EA00070BD00003C000020480000200C4808B540
:100EB000816941F001018161816901F001010091C5
:100EC000C16941F08051C161C06900F0805000905B
:100ED0000448416821F0E06141F00071416008BDC3
:100EE000001002400000014000280DDB00F01F024E
:100EF000012191404009800000F1E020C0F88011FC
:100F0000BFF34F8FBFF36F8F7047002809DB00F0EE
:100F10001F02012191404009800000F1E020C0F84B
:100F200000117047F0B40E4B1B680C46C3F302234C
:100F3000C3F10705042D00D90425191D072901D285
:100F4000002300E0DB1E012606FA05F1491E2140C0
:100F500099409E40761E16403143F0BC00F0D1BE51
:100F60000CED00E0064900F0070208684FF6FF03A9
:100F7000184040EA0220034A10430860704700000E
:100F80000CED00E00000FA050648026822F00402B9
:100F90000260012903D040BF20BF20BF704730BF8F
:100FA0007047000010ED00E02DE9F0470F46050006
:100FB00061D0434E306800F00700B84209D2306873
:100FC00020F0070038433060306800F00700B84276
:100FD00051D128683B4C810712D5400703D5606882
:100FE00040F4E06060602878000703D5606840F452
:100FF000605060606068A96820F0F000084360609D
:101000002878C00728D06868012810D021680228F5
:1010100010D0890700292EDA616821F0030101430D
:101020006160FFF703FF804641F288390DE02168D7
:101030008903EFE78901EDE7FFF7F8FEA0EB080170
:10104000494502D90320BDE8F0876068696800F06F
:101050000C00B0EB810FEFD1306800F00700B84210
:101060000BD9306820F0070038433060306800F05A
:101070000700B84201D00120E5E72878400705D5F0
:101080006068E96820F4E060084360602878000741
:1010900006D56068296920F4605040EAC1006060AC
:1010A00000F086F86168084AC1F30311515CC8403A
:1010B0000649086006480068FFF7D8FE0020C2E72E
:1010C0000020024000100240A62100084800002035
:1010D00040000020014800687047000048000020E0
:1010E00010B50F21016021490A6853034FF0000237
:1010F00002D54FF4A02304E00B68DB0303D54FF4C3
:101100008033436000E042604B6803F40033836047
:101110000B68DC074FF0010301D0036100E00261BE
:101120000C68C4F3C40444610C6A640702D5052446
:10113000C46005E00C6AE40701D0C36000E0C2604F
:101140004C6AE40701D0836100E082610A68D20141
:1011500002D50222C26100E0C3614A6802F4803213
:101160000262496801F47011416210BD0010024032
:101170000448054900684968044AC1F30221515CEA
:10118000C84070474800002000100240B621000807
:101190000448054900684968044AC1F3C221515C0A
:1011A000C84070474800002000100240B6210008E7
:1011B00012A185B00FC98DE80F0014A0144A006871
:1011C00004905168134801F00C03042B10D0082B35
:1011D0000ED1C1F38343C9031DF803000AD551683A
:1011E00004AAC1F34041515C0A4A5043B0FBF1F0FC
:1011F00005B0704708494843FAE7000002030405B8
:10120000060708090A0B0C0D0E0F10100102000052
:101210000010024000127A0000093D002DE9F84F4D
:10122000040070D02078C04DC00749D06868C0F372
:101230008100012807D06868C0F38100022809D125
:101240006868C00306D52868800339D5606800281F
:10125000E7D035E06068B0F5803F0BD010B1B0F555
:10126000A02F11D0286820F480302860286820F44E
:10127000802002E0286840F480302860606890B1E7
:10128000FFF7D4FD06460AE0286840F48020286075
:10129000F0E700BFFFF7CAFD801B642873D82868F9
:1012A0008003F7D50CE0FFF7C1FD064605E000BF5F
:1012B000FFF7BCFD801B6428F0D828688003F7D4B2
:1012C00020789A4E80074FF001094FF0000839D579
:1012D000686810F00C0F07D06868C0F3810002281E
:1012E00009D16868C00306D42868800714D520692E
:1012F000012808D110E02069B0B1C6F80090FFF7CE
:1013000095FD074605E00AE1FFF790FDC01B0228A6
:10131000C4D828688007F7D52868616920F0F800EC
:1013200040EAC10028600DE0C6F80080FFF77EFDAE
:10133000074604E0FFF77AFDC01B022823D828687F
:101340008007F7D4207800072CD57948A169D9B156
:10135000C0F80090FFF76AFD074604E0FFF766FD5E
:10136000C01B02280FD8686A8007F7D571484FF470
:10137000FA510068B0FBF1F0009000BF0098411EE8
:101380000091FAD20EE080E0C0F80080FFF74EFD39
:10139000074604E0FFF74AFDC01B022875D8686ABB
:1013A0008007F7D42078400760D5E8690027C0009F
:1013B00008D4E86940F08050E861E869012700F04E
:1013C000805000905C480168C90513D401688346C9
:1013D00041F480710160FFF729FD824606E000BFFD
:1013E000FFF724FDA0EB0A0064284ED8DBF80000CC
:1013F000C005F5D5E06801280AD008B1052813D04A
:10140000286A20F001002862286A20F0040002E027
:10141000286A40F001002862E06841F2883B98B1F8
:10142000FFF704FD82460BE0286A40F004002862C2
:10143000EEE700BFFFF7FAFCA0EB0A0159455AD8C6
:10144000286A8007F6D50CE0FFF7F0FC824605E03D
:10145000FFF7ECFCA0EB0A0159454CD8286A80073D
:10146000F6D41FB1E86920F08050E861E06988B3E4
:101470006968C1F38101022944D00228C6F860805E
:1014800004D0FFF7D3FC044638E034E0FFF7CEFC8D
:10149000074604E0FFF7CAFCC01B02282BD82868C7
:1014A0008001F7D4206AB0F5803F05D16868A16853
:1014B00020F4003008436860D4E9080108436968F3
:1014C00021F4741108436860C6F86090FFF7AEFC21
:1014D000044606E025E000BFFFF7A8FC001B022839
:1014E00009D828688001F7D51BE000BFFFF79EFCF4
:1014F000001B022802D90320BDE8F88F286880016C
:10150000F4D40EE00128F7D06868226A00F4803134
:10151000914204D1616A00F47010884201D0012028
:10152000EAE70020E8E70000001002400000424225
:101530008004424248000020007000404FF0E0204C
:10154000016941F002010161704710B5401EB0F120
:10155000807F01D3012010BD4FF0E02460610F2196
:10156000601700F0CEFB0020A06107202061002062
:1015700010BD4FF0E020016921F0020101617047C8
:101580007047000070B5026804461068D16853695E
:1015900010F00F0F50D003F0010501F490763543A1
:1015A0005DD0C20705D0CA0503D5E26B42F0010247
:1015B000E263420705D5DA0703D0E26B42F002028C
:1015C000E263820705D5DA0703D0E26B42F004023A
:1015D000E263020705D5DA0703D0E26B42F00802A6
:1015E000E263E26B002A33D0800604D5880602D578
:1015F000204600F067FA20684069E16BC0F3801074
:10160000090700D428B3204600F04EFA206841694B
:1016100049061AD5416921F040014161606BA0B1D2
:101620001B494163606BFFF783FA002810D0606BA1
:10163000416BBDE870400847830610D58B060ED578
:101640002046BDE8704000F03DBA2046FFF798FF05
:1016500070BD2046FFF794FF0020E06370BD0306D5
:1016600006D50B0604D52046BDE8704000F0D2BA7E
:101670004006F3D54806F1D5D168204621F0400157
:10168000D160202184F8391000F009F970BD000004
:10169000991A000870B5040004D094F839000025A8
:1016A00010B106E0012070BD84F83850204600F0EB
:1016B00023F8242084F839002068C16821F40051FF
:1016C000C160204600F04AFA2068016921F4904187
:1016D00001612068416921F02A0141612068C168E7
:1016E00041F40051C160E563202084F8390084F89A
:1016F0003A00002070BD000030B585B00024009491
:101700000194029403940068184988422BD1184828
:10171000C16941F40031C161C16901F40031049132
:10172000816941F0040181618069124D00F004007B
:101730000490042000900220019003200390694649
:101740002846FFF777FA0820CDE9000469462846C5
:101750000294FFF76FFA002211462620FFF7E2FB02
:101760002620FFF7D2FB05B030BD0000004400404A
:10177000001002400008014090F83A30202B22D19E
:10178000F9B1F2B190F83830012B1CD0816282851A
:10179000C2850021C163222280F83A2080F83810E7
:1017A0000168CA6842F48072CA6001684A6942F0FE
:1017B00001024A610068C16841F02001C160002057
:1017C0007047012070470220704700000348044919
:1017D0000278A1F1B800FFF7CFBF000000000020A1
:1017E000A80100202DE9F843044690F839001F466F
:1017F00016460D46202850D1A5B19EB194F8380068
:1018000001284AD0012084F838004FF00008C4F8BD
:101810003C80212084F83900FFF708FBA68481462C
:10182000E68426E00120BDE8F883E08C401EE084D9
:10183000A0684B46B0F5805F4FF000024FF080018A
:101840002046009703D000F016FAE8B90DE000F04A
:1018500012FAC8B928882168C0F3080048602069D6
:1018600008B16D1C05E0AD1C03E0216815F8010B03
:101870004860E08C0028D8D14B4600224021204609
:10188000009700F0F8F908B10320CCE7202084F895
:10189000390084F838800020C5E70220C3E770478C
:1018A000FEE700000C480B494FF44022016009217B
:1018B000416000218160C0E903124FF4801242614F
:1018C0000176417601228276C27601774177FEF772
:1018D000EBBE0000006400408C00002070B586B0B4
:1018E000002531480095019502950395816941F0E5
:1018F00010018161816901F010010491816941F059
:1019000020018161816901F020010491816941F028
:1019100004018161816901F004010491816941F050
:10192000080181618069214E00F008004FF40054E5
:101930000490002221463046FFF773FA0220CDE9D9
:10194000025000940124694601943046FFF772F971
:101950004FF440400325CDE9000569463046FFF7C6
:1019600069F913480294CDE90040124C69462046BB
:10197000FFF760F948F2F270CDE9000569462046AC
:10198000FFF758F94FF6FF70CDE9000569460A48A0
:10199000FFF750F9002211460620FFF7C3FA062090
:1019A000FFF7B3FA06B070BD00100240001001400E
:1019B0000000211000080140000C0140FEE77047C4
:1019C000704701894289881A914200D20830C0B21A
:1019D000704741894A1C92B24281415C082A01D376
:1019E00000224281084670470A89531C0B818854A3
:1019F0000889082801D30020088170477047FFF745
:101A00001BBA30B58FB028216846FEF792FB14212F
:101A10000AA8FEF78EFB01210804CDE9001000247E
:101A2000029402250491CDE907504FF4E01009908B
:101A30006846FFF7F3FB0F20CDE90A056802CDE900
:101A40000C4002210AA80E94FFF7AEFA0FB030BD89
:101A50000D48016841F00101016041680B4A1140E5
:101A6000416001680A4A11400160016821F4802147
:101A70000160416821F4FE0141604FF41F01816063
:101A80000449C00308607047001002400000FFF8DE
:101A9000FFFFF6FE08ED00E010B5406A0021C185A9
:101AA000C184FFF76DFD10BD0168CA6822F4907211
:101AB000CA6001684A6922F001024A61202180F867
:101AC0003A10704710B590F83A10222901D0022040
:101AD00010BD8168B1F5805F11D0016900290168EE
:101AE0001FD0496801F07F03816A4A1C82620B7033
:101AF000C18D491E0904090CC18518D02BE002696B
:101B0000816A002A0268526805D0D2B20A80816ACE
:101B1000491C8162ECE7C2F308020A80816A891CD1
:101B2000F7E74A68816A4B1C83620A70E0E7016844
:101B3000CA6822F02002CA600168CA6822F4807272
:101B4000CA6001684A6922F001024A61202180F8D6
:101B50003A10FFF73BFE002010BD00002DE9F041D8
:101B6000044600680169E26821F4405111430161B3
:101B70002169A0680843616908432168CA6841F285
:101B80000C639A430243CA6020684169A26921F448
:101B90004071114341611E49206864253226884204
:101BA00002D1FFF7F5FA01E0FFF7E2FA00EBC0011E
:101BB00001EB001160686FF018078000B1FBF0F2D4
:101BC000B2FBF5F2B1FBF0F37A4303EB8202B1FB17
:101BD000F0F306EB0212B2FBF5F2B3FBF5F302F001
:101BE000F00202EB0312B1FBF0F3B1FBF0F0B0FB3B
:101BF000F5F0784303EB800006EB0010B0FBF5F046
:101C0000216800F00F0010448860BDE8F0810000FA
:101C10000038014090F83910212901D00220704786
:101C20008168B1F5805F016A0BD04A1C02620268CC
:101C300009785160C18C491E0904090CC1840ED079
:101C400017E009880268C1F30801516001690029A1
:101C5000016A02D0491C0162ECE7891CFBE70168BC
:101C6000CA6822F08002CA600068C16841F0400181
:101C7000C160002070472DE9F041984617460E4696
:101C80000446069D1DE0681C1BD02DB1FFF7CEF861
:101C9000A0EB0800A84214D92068C16821F4D071D3
:101CA000C1602068416921F001014161202084F870
:101CB000390084F83A00002084F838000320BDE899
:101CC000F0812068006836EA000004D00020B842A5
:101CD000D9D00020F3E70120F9E700000148FFF721
:101CE00051BC0000F00000200148FEF7E3BB0000FB
:101CF0008C0000200148FEF7DDBB00008C000020B6
:101D0000FEE70907090E002804DB00F1E02080F857
:101D10000014704700F00F0000F1E02080F8141D5F
:101D2000704702E008C8121F08C1002AFAD17047A4
:101D30007047002001E001C1121F002AFBD170474B
:101D400030B5044600782A4902282DD05FF0020001
:101D5000FFF74AFE207A002520B1257224490C2085
:101D6000FFF742FE607A20B1657221490D20FFF72E
:101D70003BFE607820B165701D490F20FFF734FEEF
:101D8000A07820B1A5701A490E20FFF72DFE6079CA
:101D900068B118486571017991F0010101714FF046
:101DA000010003D0E07004E00120D1E72071E07869
:101DB00020B1E5700E490020FFF716FE207920B112
:101DC00025710B490020FFF70FFEA07920B1A57106
:101DD00007490520FFF708FEE079002806D0E571E5
:101DE000BDE8304002490420FFF7FEBD30BD0000D1
:101DF0002C0200200000002010B51B480024012107
:101E00004461C0E9064149F6C012C0E900244FF61A
:101E1000E072C0E90224046101620146D838FEF78D
:101E20002FFA114848F60271D838FEF7B3F90E4878
:101E30000E4A0621D838FEF75BFD0B484FF480317F
:101E4000D838FEF7A7F90848094A0B21D838FEF719
:101E50004FFD054840F232513438C0E900140821E2
:101E60008460C0E9034110BD64010020A10900089D
:101E7000FD0A0008724808B5411CC0E90301811C35
:101E80004161C11C8161011DC161411D0162811D52
:101E90004162C11D8162491CC162491C0163FEF798
:101EA000D3FFFFF7AEFDFFF719FDFFF7FBFC664818
:101EB0006449002501604FF41651C0E901150C2159
:101EC000C560C0E904518561C561FFF7E3FB5F4C64
:101ED0005B495D4822785039FFF74EFCFFF78CFFD5
:101EE00059486438FEF7B2FDFEF71AFEFFF7F2F824
:101EF000DFF84CB1564F04F10609ABF16C0B4FF40F
:101F0000005A4FF4FA78606199F8001021B189F80D
:101F100000504B48FFF714FFFEF788FFDBF818105E
:101F20005E46401A64281ED9FEF780FFB06144481F
:101F30003430FFF746FDE070A8B141483430FFF778
:101F400048FD3070C0EB001142480844FEF7FCF831
:101F500082B230786423C0EB00113E4801443A4815
:101F6000FFF740FC3570A078012821D1A57001222F
:101F700051463846FEF755FFFFF7FBFA3648C16970
:101F800041F08051C161C069012100F08050009092
:101F90000020FEF7F9FF0620FEF7A6FFFFF7CEFAB6
:101FA000FFF798F86061FFF795F8A0610220A07034
:101FB000564651463846FEF72DFFFFF7F9F82062E6
:101FC000FFF7D6F86062FFF7E3F8A0621C482838F4
:101FD000FFF786F84046FEF7F7FD0620FEF795FF6F
:101FE00031463846FEF716FF17486438FEF724FCE2
:101FF0002061D8B914486438FEF746FAB0B1FF2022
:102000002081124B10491C334031A3F11202A1F17F
:10201000A400FEF7D1F8607118B12089411E21811A
:10202000EFD20A490A310878401C08704046FEF792
:10203000CBFD0648343001884180058064E700000C
:10204000F801002000440040F000002000000020C3
:10205000001001405C200008001002400000000059
:102060000000000000000000000000434F4D2B5016
:10207000574F530D0A0000000000434F4D2B50579F
:1020800044530D0A0000000000434F4D2B524542BF
:102090004F4F540D0A000000434F4D2B56500D0A70
:1020A00000000000000000434F4D2B56440D0A0075
:1020B000000000000000434F4D2B47560D0A000062
:1020C0000000000000434F4D2B4D42540D0A00000C
:1020D00000000000434F4D2B49510D0A0000000045
:1020E00000000042542B50520D0A00000000000076
:1020F000000042542B41430D0A0000000000000084
:102100000042542B44430D0A000000000000000070
:1021100042542B43410D0A00000000000000004221
:10212000542B434A0D0A00000000000000004254F6
:102130002B43450D0A000000000000000042542B14
:1021400043520D0A0000000000000000434F4D2BD9
:1021500049510D0A00000000000000434F4D2B477D
:10216000560D0A00000000000000434F4D2B504E5A
:102170000D0A00000000000000434F4D2B50560D8B
:102180000A00000000000000434F4D2B50410D0A93
:1021900000000000000000434F4D2B50550D0A0079
:1021A000000000000000000000000000000001022C
:1021B00003040607080900000000010203040000F0
:1021C000E0210008000000204C000000221D000853
:1021D0002C2200084C000020EC050000321D0008F5
:1021E0000600020001000000000001DFC5D1000070
:1021F00000000000000000000000000000000000DF
:1022000000000000000000000000000000000000CE
:1022100000000000000000000000000001000000BD
:0C22200010000000000000000024F4008A
:04000005080000ED02
:00000001FF
